:020000040000FA
:020000008E2848
:040002000034003492
:020008000528C9
:06000A00831203138C1C9D
:100010000900831203138709831203138C1009004C
:100020008316031375308F00831603139001831218
:1000300003130030880083160313003088008316F2
:100040000313071183120313023092008312031368
:1000500091018316031383309200831603138C14CB
:100060008316031307138717831603131812181523
:1000700083160317871183160313333099008312F5
:10008000031318169817831203130B178B17080006
:100090002930F1017002F10D711C57284030F10137
:1000A0007002F10D711857283030F0020800FF304F
:1000B000F0000800F100F10B5E280800C830F200E3
:1000C000F20B63285B280000000000000000000025
:1000D00000006028831203138C1E6A288312031306
:1000E0001A08F0004820F01B6A28831203137008D6
:1000F000880083120313181283120313F00AF00B03
:10010000822889281215FA305A201211FA305A2002
:100110007F288312031318166A28080010206A200B
:00000001FF
